{
  "_format": "hh-sol-artifact-1",
  "contractName": "ReviewReward",
  "sourceName": "contracts/reviewReward.sol",
  "abi": [
    {
      "inputs": [
        {
          "internalType": "address",
          "name": "_trustedSigner",
          "type": "address"
        }
      ],
      "stateMutability": "nonpayable",
      "type": "constructor"
    },
    {
      "inputs": [
        {
          "internalType": "address",
          "name": "owner",
          "type": "address"
        }
      ],
      "name": "OwnableInvalidOwner",
      "type": "error"
    },
    {
      "inputs": [
        {
          "internalType": "address",
          "name": "account",
          "type": "address"
        }
      ],
      "name": "OwnableUnauthorizedAccount",
      "type": "error"
    },
    {
      "anonymous": false,
      "inputs": [
        {
          "indexed": true,
          "internalType": "address",
          "name": "previousOwner",
          "type": "address"
        },
        {
          "indexed": true,
          "internalType": "address",
          "name": "newOwner",
          "type": "address"
        }
      ],
      "name": "OwnershipTransferred",
      "type": "event"
    },
    {
      "inputs": [
        {
          "internalType": "uint256",
          "name": "",
          "type": "uint256"
        }
      ],
      "name": "campaigns",
      "outputs": [
        {
          "internalType": "address",
          "name": "creator",
          "type": "address"
        },
        {
          "internalType": "string",
          "name": "productName",
          "type": "string"
        },
        {
          "internalType": "string",
          "name": "description",
          "type": "string"
        },
        {
          "internalType": "string",
          "name": "productLink",
          "type": "string"
        },
        {
          "internalType": "uint256",
          "name": "rewardPerResponse",
          "type": "uint256"
        },
        {
          "internalType": "uint256",
          "name": "maxResponses",
          "type": "uint256"
        },
        {
          "internalType": "uint256",
          "name": "totalResponses",
          "type": "uint256"
        },
        {
          "internalType": "bool",
          "name": "active",
          "type": "bool"
        }
      ],
      "stateMutability": "view",
      "type": "function"
    },
    {
      "inputs": [
        {
          "internalType": "uint256",
          "name": "_amount",
          "type": "uint256"
        },
        {
          "internalType": "string",
          "name": "_message",
          "type": "string"
        },
        {
          "internalType": "bytes",
          "name": "_signature",
          "type": "bytes"
        }
      ],
      "name": "claimReward",
      "outputs": [],
      "stateMutability": "nonpayable",
      "type": "function"
    },
    {
      "inputs": [
        {
          "internalType": "string",
          "name": "_productName",
          "type": "string"
        },
        {
          "internalType": "string",
          "name": "_description",
          "type": "string"
        },
        {
          "internalType": "string",
          "name": "_productLink",
          "type": "string"
        },
        {
          "internalType": "uint256",
          "name": "_rewardPerResponse",
          "type": "uint256"
        },
        {
          "internalType": "uint256",
          "name": "_maxResponses",
          "type": "uint256"
        }
      ],
      "name": "createCampaign",
      "outputs": [],
      "stateMutability": "nonpayable",
      "type": "function"
    },
    {
      "inputs": [
        {
          "internalType": "uint256",
          "name": "campaignId",
          "type": "uint256"
        }
      ],
      "name": "getCampaign",
      "outputs": [
        {
          "components": [
            {
              "internalType": "address",
              "name": "creator",
              "type": "address"
            },
            {
              "internalType": "string",
              "name": "productName",
              "type": "string"
            },
            {
              "internalType": "string",
              "name": "description",
              "type": "string"
            },
            {
              "internalType": "string",
              "name": "productLink",
              "type": "string"
            },
            {
              "internalType": "uint256",
              "name": "rewardPerResponse",
              "type": "uint256"
            },
            {
              "internalType": "uint256",
              "name": "maxResponses",
              "type": "uint256"
            },
            {
              "internalType": "uint256",
              "name": "totalResponses",
              "type": "uint256"
            },
            {
              "internalType": "bool",
              "name": "active",
              "type": "bool"
            }
          ],
          "internalType": "struct ReviewReward.Campaign",
          "name": "",
          "type": "tuple"
        }
      ],
      "stateMutability": "view",
      "type": "function"
    },
    {
      "inputs": [],
      "name": "getCampaignCount",
      "outputs": [
        {
          "internalType": "uint256",
          "name": "",
          "type": "uint256"
        }
      ],
      "stateMutability": "view",
      "type": "function"
    },
    {
      "inputs": [
        {
          "internalType": "bytes32",
          "name": "_messageHash",
          "type": "bytes32"
        }
      ],
      "name": "getEthSignedMessageHash",
      "outputs": [
        {
          "internalType": "bytes32",
          "name": "",
          "type": "bytes32"
        }
      ],
      "stateMutability": "pure",
      "type": "function"
    },
    {
      "inputs": [
        {
          "internalType": "address",
          "name": "to",
          "type": "address"
        },
        {
          "internalType": "uint256",
          "name": "amount",
          "type": "uint256"
        },
        {
          "internalType": "string",
          "name": "message",
          "type": "string"
        },
        {
          "internalType": "uint256",
          "name": "nonce",
          "type": "uint256"
        }
      ],
      "name": "getMessageHash",
      "outputs": [
        {
          "internalType": "bytes32",
          "name": "",
          "type": "bytes32"
        }
      ],
      "stateMutability": "pure",
      "type": "function"
    },
    {
      "inputs": [
        {
          "internalType": "address",
          "name": "",
          "type": "address"
        }
      ],
      "name": "nonces",
      "outputs": [
        {
          "internalType": "uint256",
          "name": "",
          "type": "uint256"
        }
      ],
      "stateMutability": "view",
      "type": "function"
    },
    {
      "inputs": [],
      "name": "owner",
      "outputs": [
        {
          "internalType": "address",
          "name": "",
          "type": "address"
        }
      ],
      "stateMutability": "view",
      "type": "function"
    },
    {
      "inputs": [
        {
          "internalType": "bytes32",
          "name": "ethSignedMessageHash",
          "type": "bytes32"
        },
        {
          "internalType": "bytes",
          "name": "signature",
          "type": "bytes"
        }
      ],
      "name": "recoverSigner",
      "outputs": [
        {
          "internalType": "address",
          "name": "",
          "type": "address"
        }
      ],
      "stateMutability": "pure",
      "type": "function"
    },
    {
      "inputs": [],
      "name": "renounceOwnership",
      "outputs": [],
      "stateMutability": "nonpayable",
      "type": "function"
    },
    {
      "inputs": [
        {
          "internalType": "address",
          "name": "_signer",
          "type": "address"
        }
      ],
      "name": "setTrustedSigner",
      "outputs": [],
      "stateMutability": "nonpayable",
      "type": "function"
    },
    {
      "inputs": [
        {
          "internalType": "bytes",
          "name": "sig",
          "type": "bytes"
        }
      ],
      "name": "splitSignature",
      "outputs": [
        {
          "internalType": "bytes32",
          "name": "r",
          "type": "bytes32"
        },
        {
          "internalType": "bytes32",
          "name": "s",
          "type": "bytes32"
        },
        {
          "internalType": "uint8",
          "name": "v",
          "type": "uint8"
        }
      ],
      "stateMutability": "pure",
      "type": "function"
    },
    {
      "inputs": [
        {
          "internalType": "address",
          "name": "newOwner",
          "type": "address"
        }
      ],
      "name": "transferOwnership",
      "outputs": [],
      "stateMutability": "nonpayable",
      "type": "function"
    },
    {
      "inputs": [],
      "name": "trustedSigner",
      "outputs": [
        {
          "internalType": "address",
          "name": "",
          "type": "address"
        }
      ],
      "stateMutability": "view",
      "type": "function"
    },
    {
      "inputs": [
        {
          "internalType": "bytes32",
          "name": "",
          "type": "bytes32"
        }
      ],
      "name": "usedHashes",
      "outputs": [
        {
          "internalType": "bool",
          "name": "",
          "type": "bool"
        }
      ],
      "stateMutability": "view",
      "type": "function"
    }
  ],
  "bytecode": "0x608060405234801561001057600080fd5b5060405161236738038061236783398181016040528101906100329190610223565b33600073ffffffffffffffffffffffffffffffffffffffff168173ffffffffffffffffffffffffffffffffffffffff16036100a55760006040517f1e4fbdf700000000000000000000000000000000000000000000000000000000815260040161009c919061025f565b60405180910390fd5b6100b4816100fc60201b60201c565b5080600460006101000a81548173ffffffffffffffffffffffffffffffffffffffff021916908373ffffffffffffffffffffffffffffffffffffffff1602179055505061027a565b60008060009054906101000a900473ffffffffffffffffffffffffffffffffffffffff169050816000806101000a81548173ffffffffffffffffffffffffffffffffffffffff021916908373ffffffffffffffffffffffffffffffffffffffff1602179055508173ffffffffffffffffffffffffffffffffffffffff168173ffffffffffffffffffffffffffffffffffffffff167f8be0079c531659141344cd1fd0a4f28419497f9722a3daafe3b4186f6b6457e060405160405180910390a35050565b600080fd5b600073ffffffffffffffffffffffffffffffffffffffff82169050919050565b60006101f0826101c5565b9050919050565b610200816101e5565b811461020b57600080fd5b50565b60008151905061021d816101f7565b92915050565b600060208284031215610239576102386101c0565b5b60006102478482850161020e565b91505092915050565b610259816101e5565b82525050565b60006020820190506102746000830184610250565b92915050565b6120de806102896000396000f3fe608060405234801561001057600080fd5b50600436106101005760003560e01c8063980f2e6611610097578063cf78a29c11610066578063cf78a29c146102dc578063f2fde38b146102f8578063f74d548014610314578063fa5408011461033257610100565b8063980f2e661461022e578063a35f8a401461024a578063a7bb58031461027a578063aef18bf7146102ac57610100565b8063715018a6116100d3578063715018a6146101a65780637ecebe00146101b05780638da5cb5b146101e057806397aba7f9146101fe57610100565b8063141961bc146101055780635598f8cc1461013c57806356a1c7011461016c5780636caa921814610188575b600080fd5b61011f600480360381019061011a91906110a9565b610362565b6040516101339897969594939291906111d1565b60405180910390f35b610156600480360381019061015191906110a9565b61057f565b6040516101639190611399565b60405180910390f35b610186600480360381019061018191906113e7565b610801565b005b61019061084d565b60405161019d9190611414565b60405180910390f35b6101ae61085a565b005b6101ca60048036038101906101c591906113e7565b61086e565b6040516101d79190611414565b60405180910390f35b6101e8610886565b6040516101f5919061142f565b60405180910390f35b610218600480360381019061021391906115b5565b6108af565b604051610225919061142f565b60405180910390f35b610248600480360381019061024391906116b2565b61091e565b005b610264600480360381019061025f9190611781565b610a75565b6040516102719190611813565b60405180910390f35b610294600480360381019061028f919061182e565b610aae565b6040516102a393929190611893565b60405180910390f35b6102c660048036038101906102c191906118ca565b610b16565b6040516102d391906118f7565b60405180910390f35b6102f660048036038101906102f19190611912565b610b36565b005b610312600480360381019061030d91906113e7565b610dd3565b005b61031c610e59565b604051610329919061142f565b60405180910390f35b61034c600480360381019061034791906118ca565b610e7f565b6040516103599190611813565b60405180910390f35b6001818154811061037257600080fd5b90600052602060002090600802016000915090508060000160009054906101000a900473ffffffffffffffffffffffffffffffffffffffff16908060010180546103bb906119cc565b80601f01602080910402602001604051908101604052809291908181526020018280546103e7906119cc565b80156104345780601f1061040957610100808354040283529160200191610434565b820191906000526020600020905b81548152906001019060200180831161041757829003601f168201915b505050505090806002018054610449906119cc565b80601f0160208091040260200160405190810160405280929190818152602001828054610475906119cc565b80156104c25780601f10610497576101008083540402835291602001916104c2565b820191906000526020600020905b8154815290600101906020018083116104a557829003601f168201915b5050505050908060030180546104d7906119cc565b80601f0160208091040260200160405190810160405280929190818152602001828054610503906119cc565b80156105505780601f1061052557610100808354040283529160200191610550565b820191906000526020600020905b81548152906001019060200180831161053357829003601f168201915b5050505050908060040154908060050154908060060154908060070160009054906101000a900460ff16905088565b610587611002565b6001828154811061059b5761059a6119fd565b5b9060005260206000209060080201604051806101000160405290816000820160009054906101000a900473ffffffffffffffffffffffffffffffffffffffff1673ffffffffffffffffffffffffffffffffffffffff1673ffffffffffffffffffffffffffffffffffffffff16815260200160018201805461061b906119cc565b80601f0160208091040260200160405190810160405280929190818152602001828054610647906119cc565b80156106945780601f1061066957610100808354040283529160200191610694565b820191906000526020600020905b81548152906001019060200180831161067757829003601f168201915b505050505081526020016002820180546106ad906119cc565b80601f01602080910402602001604051908101604052809291908181526020018280546106d9906119cc565b80156107265780601f106106fb57610100808354040283529160200191610726565b820191906000526020600020905b81548152906001019060200180831161070957829003601f168201915b5050505050815260200160038201805461073f906119cc565b80601f016020809104026020016040519081016040528092919081815260200182805461076b906119cc565b80156107b85780601f1061078d576101008083540402835291602001916107b8565b820191906000526020600020905b81548152906001019060200180831161079b57829003601f168201915b505050505081526020016004820154815260200160058201548152602001600682015481526020016007820160009054906101000a900460ff1615151515815250509050919050565b610809610eaf565b80600460006101000a81548173ffffffffffffffffffffffffffffffffffffffff021916908373ffffffffffffffffffffffffffffffffffffffff16021790555050565b6000600180549050905090565b610862610eaf565b61086c6000610f36565b565b60026020528060005260406000206000915090505481565b60008060009054906101000a900473ffffffffffffffffffffffffffffffffffffffff16905090565b6000806000806108be85610aae565b925092509250600186828585604051600081526020016040526040516108e79493929190611a2c565b6020604051602081039080840390855afa158015610909573d6000803e3d6000fd5b50505060206040510351935050505092915050565b610926610eaf565b60016040518061010001604052803373ffffffffffffffffffffffffffffffffffffffff1681526020018781526020018681526020018581526020018481526020018381526020016000815260200160011515815250908060018154018082558091505060019003906000526020600020906008020160009091909190915060008201518160000160006101000a81548173ffffffffffffffffffffffffffffffffffffffff021916908373ffffffffffffffffffffffffffffffffffffffff1602179055506020820151816001019081610a019190611c1d565b506040820151816002019081610a179190611c1d565b506060820151816003019081610a2d9190611c1d565b506080820151816004015560a0820151816005015560c0820151816006015560e08201518160070160006101000a81548160ff02191690831515021790555050505050505050565b600082848684604051602001610a8e9493929190611d94565b604051602081830303815290604052805190602001209050949350505050565b60008060006041845114610af7576040517f08c379a0000000000000000000000000000000000000000000000000000000008152600401610aee90611e2a565b60405180910390fd5b6020840151925060408401519150606084015160001a90509193909250565b60036020528060005260406000206000915054906101000a900460ff1681565b6000610bac838533600260003373ffffffffffffffffffffffffffffffffffffffff1673ffffffffffffffffffffffffffffffffffffffff16815260200190815260200160002054604051602001610b919493929190611d94565b60405160208183030381529060405280519060200120610e7f565b90506003600082815260200190815260200160002060009054906101000a900460ff1615610c0f576040517f08c379a0000000000000000000000000000000000000000000000000000000008152600401610c0690611e96565b60405180910390fd5b6000610c1b82846108af565b9050600460009054906101000a900473ffffffffffffffffffffffffffffffffffffffff1673ffffffffffffffffffffffffffffffffffffffff168173ffffffffffffffffffffffffffffffffffffffff1614610cad576040517f08c379a0000000000000000000000000000000000000000000000000000000008152600401610ca490611f02565b60405180910390fd5b60016003600084815260200190815260200160002060006101000a81548160ff0219169083151502179055506001600260003373ffffffffffffffffffffffffffffffffffffffff1673ffffffffffffffffffffffffffffffffffffffff1681526020019081526020016000206000828254610d299190611f51565b92505081905550730b2c639c533813f4aa9d7837caf62653d097ff8573ffffffffffffffffffffffffffffffffffffffff166323b872dd610d68610886565b33886040518463ffffffff1660e01b8152600401610d8893929190611f85565b6020604051808303816000875af1158015610da7573d6000803e3d6000fd5b505050506040513d601f19601f82011682018060405250810190610dcb9190611fe8565b505050505050565b610ddb610eaf565b600073ffffffffffffffffffffffffffffffffffffffff168173ffffffffffffffffffffffffffffffffffffffff1603610e4d5760006040517f1e4fbdf7000000000000000000000000000000000000000000000000000000008152600401610e44919061142f565b60405180910390fd5b610e5681610f36565b50565b600460009054906101000a900473ffffffffffffffffffffffffffffffffffffffff1681565b600081604051602001610e929190612082565b604051602081830303815290604052805190602001209050919050565b610eb7610ffa565b73ffffffffffffffffffffffffffffffffffffffff16610ed5610886565b73ffffffffffffffffffffffffffffffffffffffff1614610f3457610ef8610ffa565b6040517f118cdaa7000000000000000000000000000000000000000000000000000000008152600401610f2b919061142f565b60405180910390fd5b565b60008060009054906101000a900473ffffffffffffffffffffffffffffffffffffffff169050816000806101000a81548173ffffffffffffffffffffffffffffffffffffffff021916908373ffffffffffffffffffffffffffffffffffffffff1602179055508173ffffffffffffffffffffffffffffffffffffffff168173ffffffffffffffffffffffffffffffffffffffff167f8be0079c531659141344cd1fd0a4f28419497f9722a3daafe3b4186f6b6457e060405160405180910390a35050565b600033905090565b604051806101000160405280600073ffffffffffffffffffffffffffffffffffffffff1681526020016060815260200160608152602001606081526020016000815260200160008152602001600081526020016000151581525090565b6000604051905090565b600080fd5b600080fd5b6000819050919050565b61108681611073565b811461109157600080fd5b50565b6000813590506110a38161107d565b92915050565b6000602082840312156110bf576110be611069565b5b60006110cd84828501611094565b91505092915050565b600073ffffffffffffffffffffffffffffffffffffffff82169050919050565b6000611101826110d6565b9050919050565b611111816110f6565b82525050565b600081519050919050565b600082825260208201905092915050565b60005b83811015611151578082015181840152602081019050611136565b60008484015250505050565b6000601f19601f8301169050919050565b600061117982611117565b6111838185611122565b9350611193818560208601611133565b61119c8161115d565b840191505092915050565b6111b081611073565b82525050565b60008115159050919050565b6111cb816111b6565b82525050565b6000610100820190506111e7600083018b611108565b81810360208301526111f9818a61116e565b9050818103604083015261120d818961116e565b90508181036060830152611221818861116e565b905061123060808301876111a7565b61123d60a08301866111a7565b61124a60c08301856111a7565b61125760e08301846111c2565b9998505050505050505050565b61126d816110f6565b82525050565b600082825260208201905092915050565b600061128f82611117565b6112998185611273565b93506112a9818560208601611133565b6112b28161115d565b840191505092915050565b6112c681611073565b82525050565b6112d5816111b6565b82525050565b6000610100830160008301516112f46000860182611264565b506020830151848203602086015261130c8282611284565b915050604083015184820360408601526113268282611284565b915050606083015184820360608601526113408282611284565b915050608083015161135560808601826112bd565b5060a083015161136860a08601826112bd565b5060c083015161137b60c08601826112bd565b5060e083015161138e60e08601826112cc565b508091505092915050565b600060208201905081810360008301526113b381846112db565b905092915050565b6113c4816110f6565b81146113cf57600080fd5b50565b6000813590506113e1816113bb565b92915050565b6000602082840312156113fd576113fc611069565b5b600061140b848285016113d2565b91505092915050565b600060208201905061142960008301846111a7565b92915050565b60006020820190506114446000830184611108565b92915050565b6000819050919050565b61145d8161144a565b811461146857600080fd5b50565b60008135905061147a81611454565b92915050565b600080fd5b600080fd5b7f4e487b7100000000000000000000000000000000000000000000000000000000600052604160045260246000fd5b6114c28261115d565b810181811067ffffffffffffffff821117156114e1576114e061148a565b5b80604052505050565b60006114f461105f565b905061150082826114b9565b919050565b600067ffffffffffffffff8211156115205761151f61148a565b5b6115298261115d565b9050602081019050919050565b82818337600083830152505050565b600061155861155384611505565b6114ea565b90508281526020810184848401111561157457611573611485565b5b61157f848285611536565b509392505050565b600082601f83011261159c5761159b611480565b5b81356115ac848260208601611545565b91505092915050565b600080604083850312156115cc576115cb611069565b5b60006115da8582860161146b565b925050602083013567ffffffffffffffff8111156115fb576115fa61106e565b5b61160785828601611587565b9150509250929050565b600067ffffffffffffffff82111561162c5761162b61148a565b5b6116358261115d565b9050602081019050919050565b600061165561165084611611565b6114ea565b90508281526020810184848401111561167157611670611485565b5b61167c848285611536565b509392505050565b600082601f83011261169957611698611480565b5b81356116a9848260208601611642565b91505092915050565b600080600080600060a086880312156116ce576116cd611069565b5b600086013567ffffffffffffffff8111156116ec576116eb61106e565b5b6116f888828901611684565b955050602086013567ffffffffffffffff8111156117195761171861106e565b5b61172588828901611684565b945050604086013567ffffffffffffffff8111156117465761174561106e565b5b61175288828901611684565b935050606061176388828901611094565b925050608061177488828901611094565b9150509295509295909350565b6000806000806080858703121561179b5761179a611069565b5b60006117a9878288016113d2565b94505060206117ba87828801611094565b935050604085013567ffffffffffffffff8111156117db576117da61106e565b5b6117e787828801611684565b92505060606117f887828801611094565b91505092959194509250565b61180d8161144a565b82525050565b60006020820190506118286000830184611804565b92915050565b60006020828403121561184457611843611069565b5b600082013567ffffffffffffffff8111156118625761186161106e565b5b61186e84828501611587565b91505092915050565b600060ff82169050919050565b61188d81611877565b82525050565b60006060820190506118a86000830186611804565b6118b56020830185611804565b6118c26040830184611884565b949350505050565b6000602082840312156118e0576118df611069565b5b60006118ee8482850161146b565b91505092915050565b600060208201905061190c60008301846111c2565b92915050565b60008060006060848603121561192b5761192a611069565b5b600061193986828701611094565b935050602084013567ffffffffffffffff81111561195a5761195961106e565b5b61196686828701611684565b925050604084013567ffffffffffffffff8111156119875761198661106e565b5b61199386828701611587565b9150509250925092565b7f4e487b7100000000000000000000000000000000000000000000000000000000600052602260045260246000fd5b600060028204905060018216806119e457607f821691505b6020821081036119f7576119f661199d565b5b50919050565b7f4e487b7100000000000000000000000000000000000000000000000000000000600052603260045260246000fd5b6000608082019050611a416000830187611804565b611a4e6020830186611884565b611a5b6040830185611804565b611a686060830184611804565b95945050505050565b60008190508160005260206000209050919050565b60006020601f8301049050919050565b600082821b905092915050565b600060088302611ad37fffffffffffffffffffffffffffffffffffffffffffffffffffffffffffffffff82611a96565b611add8683611a96565b95508019841693508086168417925050509392505050565b6000819050919050565b6000611b1a611b15611b1084611073565b611af5565b611073565b9050919050565b6000819050919050565b611b3483611aff565b611b48611b4082611b21565b848454611aa3565b825550505050565b600090565b611b5d611b50565b611b68818484611b2b565b505050565b5b81811015611b8c57611b81600082611b55565b600181019050611b6e565b5050565b601f821115611bd157611ba281611a71565b611bab84611a86565b81016020851015611bba578190505b611bce611bc685611a86565b830182611b6d565b50505b505050565b600082821c905092915050565b6000611bf460001984600802611bd6565b1980831691505092915050565b6000611c0d8383611be3565b9150826002028217905092915050565b611c2682611117565b67ffffffffffffffff811115611c3f57611c3e61148a565b5b611c4982546119cc565b611c54828285611b90565b600060209050601f831160018114611c875760008415611c75578287015190505b611c7f8582611c01565b865550611ce7565b601f198416611c9586611a71565b60005b82811015611cbd57848901518255600182019150602085019450602081019050611c98565b86831015611cda5784890151611cd6601f891682611be3565b8355505b6001600288020188555050505b505050505050565b600081905092915050565b6000611d0582611117565b611d0f8185611cef565b9350611d1f818560208601611133565b80840191505092915050565b6000819050919050565b611d46611d4182611073565b611d2b565b82525050565b60008160601b9050919050565b6000611d6482611d4c565b9050919050565b6000611d7682611d59565b9050919050565b611d8e611d89826110f6565b611d6b565b82525050565b6000611da08287611cfa565b9150611dac8286611d35565b602082019150611dbc8285611d7d565b601482019150611dcc8284611d35565b60208201915081905095945050505050565b7f696e76616c6964207369676e6174757265206c656e6774680000000000000000600082015250565b6000611e14601883611122565b9150611e1f82611dde565b602082019050919050565b60006020820190508181036000830152611e4381611e07565b9050919050565b7f52657761726420616c726561647920636c61696d656400000000000000000000600082015250565b6000611e80601683611122565b9150611e8b82611e4a565b602082019050919050565b60006020820190508181036000830152611eaf81611e73565b9050919050565b7f496e76616c6964207369676e6174757265000000000000000000000000000000600082015250565b6000611eec601183611122565b9150611ef782611eb6565b602082019050919050565b60006020820190508181036000830152611f1b81611edf565b9050919050565b7f4e487b7100000000000000000000000000000000000000000000000000000000600052601160045260246000fd5b6000611f5c82611073565b9150611f6783611073565b9250828201905080821115611f7f57611f7e611f22565b5b92915050565b6000606082019050611f9a6000830186611108565b611fa76020830185611108565b611fb460408301846111a7565b949350505050565b611fc5816111b6565b8114611fd057600080fd5b50565b600081519050611fe281611fbc565b92915050565b600060208284031215611ffe57611ffd611069565b5b600061200c84828501611fd3565b91505092915050565b7f19457468657265756d205369676e6564204d6573736167653a0a333200000000600082015250565b600061204b601c83611cef565b915061205682612015565b601c82019050919050565b6000819050919050565b61207c6120778261144a565b612061565b82525050565b600061208d8261203e565b9150612099828461206b565b6020820191508190509291505056fea26469706673582212209b3a1a35eb6e66a5159cb957c3a98c35518a71554ce476d74b2e72d479c905a564736f6c634300081c0033",
  "linkReferences": {},
  "deployedLinkReferences": {}
}